{
  "_format": "hh-sol-artifact-1",
  "contractName": "Shield",
  "sourceName": "mainnet/Shield.sol",
  "abi": [
    {
      "inputs": [
        {
          "internalType": "address",
          "name": "_owner",
          "type": "address"
        },
        {
          "internalType": "contract IFairLaunchV1",
          "name": "_fairLaunchV1",
          "type": "address"
        }
      ],
      "stateMutability": "nonpayable",
      "type": "constructor"
    },
    {
      "anonymous": false,
      "inputs": [
        {
          "indexed": true,
          "internalType": "uint256",
          "name": "_pid",
          "type": "uint256"
        },
        {
          "indexed": false,
          "internalType": "uint256",
          "name": "_allocPoint",
          "type": "uint256"
        },
        {
          "indexed": true,
          "internalType": "address",
          "name": "_stakeToken",
          "type": "address"
        }
      ],
      "name": "AddPool",
      "type": "event"
    },
    {
      "anonymous": false,
      "inputs": [
        {
          "indexed": true,
          "internalType": "address",
          "name": "_to",
          "type": "address"
        },
        {
          "indexed": false,
          "internalType": "uint256",
          "name": "_amount",
          "type": "uint256"
        }
      ],
      "name": "MintWarchest",
      "type": "event"
    },
    {
      "anonymous": false,
      "inputs": [
        {
          "indexed": true,
          "internalType": "address",
          "name": "previousOwner",
          "type": "address"
        },
        {
          "indexed": true,
          "internalType": "address",
          "name": "newOwner",
          "type": "address"
        }
      ],
      "name": "OwnershipTransferred",
      "type": "event"
    },
    {
      "anonymous": false,
      "inputs": [
        {
          "indexed": false,
          "internalType": "uint256",
          "name": "_bonusMultiplier",
          "type": "uint256"
        },
        {
          "indexed": false,
          "internalType": "uint256",
          "name": "_bonusEndBlock",
          "type": "uint256"
        },
        {
          "indexed": false,
          "internalType": "uint256",
          "name": "_bonusLockUpBps",
          "type": "uint256"
        }
      ],
      "name": "SetBonus",
      "type": "event"
    },
    {
      "anonymous": false,
      "inputs": [
        {
          "indexed": true,
          "internalType": "uint256",
          "name": "_dopplePerBlock",
          "type": "uint256"
        }
      ],
      "name": "SetDopplePerBlock",
      "type": "event"
    },
    {
      "anonymous": false,
      "inputs": [
        {
          "indexed": true,
          "internalType": "uint256",
          "name": "_pid",
          "type": "uint256"
        },
        {
          "indexed": false,
          "internalType": "uint256",
          "name": "_allocPoint",
          "type": "uint256"
        }
      ],
      "name": "SetPool",
      "type": "event"
    },
    {
      "anonymous": false,
      "inputs": [
        {
          "indexed": false,
          "internalType": "address",
          "name": "newOwner",
          "type": "address"
        }
      ],
      "name": "TransferFairLaunchOwnership",
      "type": "event"
    },
    {
      "inputs": [
        {
          "internalType": "uint256",
          "name": "_allocPoint",
          "type": "uint256"
        },
        {
          "internalType": "address",
          "name": "_stakeToken",
          "type": "address"
        },
        {
          "internalType": "bool",
          "name": "_withUpdate",
          "type": "bool"
        }
      ],
      "name": "addPool",
      "outputs": [],
      "stateMutability": "nonpayable",
      "type": "function"
    },
    {
      "inputs": [],
      "name": "fairLaunchV1",
      "outputs": [
        {
          "internalType": "contract IFairLaunchV1",
          "name": "",
          "type": "address"
        }
      ],
      "stateMutability": "view",
      "type": "function"
    },
    {
      "inputs": [],
      "name": "mintCount",
      "outputs": [
        {
          "internalType": "uint256",
          "name": "",
          "type": "uint256"
        }
      ],
      "stateMutability": "view",
      "type": "function"
    },
    {
      "inputs": [],
      "name": "mintLimit",
      "outputs": [
        {
          "internalType": "uint256",
          "name": "",
          "type": "uint256"
        }
      ],
      "stateMutability": "view",
      "type": "function"
    },
    {
      "inputs": [
        {
          "internalType": "address",
          "name": "_to",
          "type": "address"
        },
        {
          "internalType": "uint256",
          "name": "_amount",
          "type": "uint256"
        }
      ],
      "name": "mintWarchest",
      "outputs": [],
      "stateMutability": "nonpayable",
      "type": "function"
    },
    {
      "inputs": [],
      "name": "owner",
      "outputs": [
        {
          "internalType": "address",
          "name": "",
          "type": "address"
        }
      ],
      "stateMutability": "view",
      "type": "function"
    },
    {
      "inputs": [],
      "name": "renounceOwnership",
      "outputs": [],
      "stateMutability": "nonpayable",
      "type": "function"
    },
    {
      "inputs": [
        {
          "internalType": "uint256",
          "name": "_bonusMultiplier",
          "type": "uint256"
        },
        {
          "internalType": "uint256",
          "name": "_bonusEndBlock",
          "type": "uint256"
        },
        {
          "internalType": "uint256",
          "name": "_bonusLockUpBps",
          "type": "uint256"
        }
      ],
      "name": "setBonus",
      "outputs": [],
      "stateMutability": "nonpayable",
      "type": "function"
    },
    {
      "inputs": [
        {
          "internalType": "uint256",
          "name": "_dopplePerBlock",
          "type": "uint256"
        }
      ],
      "name": "setDopplePerBlock",
      "outputs": [],
      "stateMutability": "nonpayable",
      "type": "function"
    },
    {
      "inputs": [
        {
          "internalType": "uint256",
          "name": "_pid",
          "type": "uint256"
        },
        {
          "internalType": "uint256",
          "name": "_allocPoint",
          "type": "uint256"
        },
        {
          "internalType": "bool",
          "name": "_withUpdate",
          "type": "bool"
        }
      ],
      "name": "setPool",
      "outputs": [],
      "stateMutability": "nonpayable",
      "type": "function"
    },
    {
      "inputs": [
        {
          "internalType": "address",
          "name": "newOwner",
          "type": "address"
        }
      ],
      "name": "transferFairLaunchOwnership",
      "outputs": [],
      "stateMutability": "nonpayable",
      "type": "function"
    },
    {
      "inputs": [
        {
          "internalType": "address",
          "name": "newOwner",
          "type": "address"
        }
      ],
      "name": "transferOwnership",
      "outputs": [],
      "stateMutability": "nonpayable",
      "type": "function"
    }
  ],
  "bytecode": "0x60806040526a04f68ca6d8cd91c600000060025569812c2a90117c7940000060035534801561002d57600080fd5b50604051610f12380380610f128339818101604052604081101561005057600080fd5b508051602090910151600061006c6001600160e01b036100dc16565b600080546001600160a01b0319166001600160a01b038316908117825560405192935091600080516020610ef2833981519152908290a3506100b6826001600160e01b036100e016565b600180546001600160a01b0319166001600160a01b039290921691909117905550610203565b3390565b6100f16001600160e01b036100dc16565b6001600160a01b031661010b6001600160e01b036101f416565b6001600160a01b031614610166576040805162461bcd60e51b815260206004820181905260248201527f4f776e61626c653a2063616c6c6572206973206e6f7420746865206f776e6572604482015290519081900360640190fd5b6001600160a01b0381166101ab5760405162461bcd60e51b8152600401808060200182810382526026815260200180610ecc6026913960400191505060405180910390fd5b600080546040516001600160a01b0380851693921691600080516020610ef283398151915291a3600080546001600160a01b0319166001600160a01b0392909216919091179055565b6000546001600160a01b031690565b610cba806102126000396000f3fe608060405234801561001057600080fd5b50600436106100b45760003560e01c806396903beb1161007157806396903beb14610168578063996517cf14610194578063bfc8094a1461019c578063c05defc8146101b9578063f2fde38b146101df578063fa5be8f814610205576100b4565b806346ca6bea146100b957806366a546b1146100e6578063715018a61461010a5780637abceffd146101125780638da5cb5b146101465780639659867e1461014e575b600080fd5b6100e4600480360360608110156100cf57600080fd5b5080359060208101359060400135151561022e565b005b6100ee61033f565b604080516001600160a01b039092168252519081900360200190f35b6100e461034e565b6100e46004803603606081101561012857600080fd5b508035906001600160a01b03602082013516906040013515156103fa565b6100ee61059d565b6101566105ac565b60408051918252519081900360200190f35b6100e46004803603604081101561017e57600080fd5b506001600160a01b0381351690602001356105b2565b61015661072e565b6100e4600480360360208110156101b257600080fd5b5035610734565b6100e4600480360360208110156101cf57600080fd5b50356001600160a01b0316610829565b6100e4600480360360208110156101f557600080fd5b50356001600160a01b0316610931565b6100e46004803603606081101561021b57600080fd5b5080359060208101359060400135610a33565b610236610b4e565b6001600160a01b031661024761059d565b6001600160a01b031614610290576040805162461bcd60e51b81526020600482018190526024820152600080516020610c37833981519152604482015290519081900360640190fd5b6001546040805163236535f560e11b81526004810186905260248101859052831515604482015290516001600160a01b03909216916346ca6bea9160648082019260009290919082900301818387803b1580156102ec57600080fd5b505af1158015610300573d6000803e3d6000fd5b50506040805185815290518693507fc0cfd54d2de2b55f1e6e108d3ec53ff0a1abe6055401d32c61e9433b747ef9f892509081900360200190a2505050565b6001546001600160a01b031681565b610356610b4e565b6001600160a01b031661036761059d565b6001600160a01b0316146103b0576040805162461bcd60e51b81526020600482018190526024820152600080516020610c37833981519152604482015290519081900360640190fd5b600080546040516001600160a01b03909116907f8be0079c531659141344cd1fd0a4f28419497f9722a3daafe3b4186f6b6457e0908390a3600080546001600160a01b0319169055565b610402610b4e565b6001600160a01b031661041361059d565b6001600160a01b03161461045c576040805162461bcd60e51b81526020600482018190526024820152600080516020610c37833981519152604482015290519081900360640190fd5b60015460408051637abceffd60e01b8152600481018690526001600160a01b038581166024830152841515604483015291519190921691637abceffd91606480830192600092919082900301818387803b1580156104b957600080fd5b505af11580156104cd573d6000803e3d6000fd5b50505050816001600160a01b031661056560018060009054906101000a90046001600160a01b03166001600160a01b031663081e3eda6040518163ffffffff1660e01b815260040160206040518083038186803b15801561052d57600080fd5b505afa158015610541573d6000803e3d6000fd5b505050506040513d602081101561055757600080fd5b50519063ffffffff610b5216565b6040805186815290517f44f06e62408d549dc25356ed3ab6326c665b66ce934c0e8d13bd1957a6031d4c9181900360200190a3505050565b6000546001600160a01b031690565b60035481565b6105ba610b4e565b6001600160a01b03166105cb61059d565b6001600160a01b031614610614576040805162461bcd60e51b81526020600482018190526024820152600080516020610c37833981519152604482015290519081900360640190fd5b60025460035461062a908363ffffffff610baf16565b11156106675760405162461bcd60e51b815260040180806020018281038252602e815260200180610c57602e913960400191505060405180910390fd5b60015460408051637262ffa360e11b81526001600160a01b038581166004830152602482018590529151919092169163e4c5ff4691604480830192600092919082900301818387803b1580156106bc57600080fd5b505af11580156106d0573d6000803e3d6000fd5b50506003546106e8925090508263ffffffff610baf16565b6003556040805182815290516001600160a01b038416917f20b0488820e356da4caf57d3dd40bd86ce781d846380de53fa2363bde132d72d919081900360200190a25050565b60025481565b61073c610b4e565b6001600160a01b031661074d61059d565b6001600160a01b031614610796576040805162461bcd60e51b81526020600482018190526024820152600080516020610c37833981519152604482015290519081900360640190fd5b60015460408051635fe404a560e11b81526004810184905290516001600160a01b039092169163bfc8094a9160248082019260009290919082900301818387803b1580156107e357600080fd5b505af11580156107f7573d6000803e3d6000fd5b50506040518392507ff99500e1556ebebca957a9f3b40f3cfce69be568f9922106fff4d4e8a3d7b9419150600090a250565b610831610b4e565b6001600160a01b031661084261059d565b6001600160a01b03161461088b576040805162461bcd60e51b81526020600482018190526024820152600080516020610c37833981519152604482015290519081900360640190fd5b6001546040805163f2fde38b60e01b81526001600160a01b0384811660048301529151919092169163f2fde38b91602480830192600092919082900301818387803b1580156108d957600080fd5b505af11580156108ed573d6000803e3d6000fd5b5050604080516001600160a01b038516815290517fd2c79d74c385af6506b2b3e26930a8fac1da876216e0dd179f45cf30cc9a52019350908190036020019150a150565b610939610b4e565b6001600160a01b031661094a61059d565b6001600160a01b031614610993576040805162461bcd60e51b81526020600482018190526024820152600080516020610c37833981519152604482015290519081900360640190fd5b6001600160a01b0381166109d85760405162461bcd60e51b8152600401808060200182810382526026815260200180610c116026913960400191505060405180910390fd5b600080546040516001600160a01b03808516939216917f8be0079c531659141344cd1fd0a4f28419497f9722a3daafe3b4186f6b6457e091a3600080546001600160a01b0319166001600160a01b0392909216919091179055565b610a3b610b4e565b6001600160a01b0316610a4c61059d565b6001600160a01b031614610a95576040805162461bcd60e51b81526020600482018190526024820152600080516020610c37833981519152604482015290519081900360640190fd5b60015460408051631f4b7d1f60e31b815260048101869052602481018590526044810184905290516001600160a01b039092169163fa5be8f89160648082019260009290919082900301818387803b158015610af057600080fd5b505af1158015610b04573d6000803e3d6000fd5b5050604080518681526020810186905280820185905290517fc792ade3e5d9b37fc2fd56ab64f9565275ad09c1b491d55839dadc83cb7090569350908190036060019150a1505050565b3390565b600082821115610ba9576040805162461bcd60e51b815260206004820152601e60248201527f536166654d6174683a207375627472616374696f6e206f766572666c6f770000604482015290519081900360640190fd5b50900390565b600082820183811015610c09576040805162461bcd60e51b815260206004820152601b60248201527f536166654d6174683a206164646974696f6e206f766572666c6f770000000000604482015290519081900360640190fd5b939250505056fe4f776e61626c653a206e6577206f776e657220697320746865207a65726f20616464726573734f776e61626c653a2063616c6c6572206973206e6f7420746865206f776e6572536869656c643a3a6d696e7457617263686573743a3a206d696e74206578636565646564206d696e744c696d6974a264697066735822122091fab7fbefb459e5c2fa4888ae4788ced0b3bec7709c2804da11a17503b3b37364736f6c634300060600334f776e61626c653a206e6577206f776e657220697320746865207a65726f20616464726573738be0079c531659141344cd1fd0a4f28419497f9722a3daafe3b4186f6b6457e0",
  "linkReferences": {},
  "deployedLinkReferences": {}
}