{
  "_format": "hh-sol-artifact-1",
  "contractName": "DoppleToken",
  "sourceName": "mainnet/FairLaunch.sol",
  "abi": [
    {
      "inputs": [
        {
          "internalType": "uint256",
          "name": "_startReleaseBlock",
          "type": "uint256"
        },
        {
          "internalType": "uint256",
          "name": "_endReleaseBlock",
          "type": "uint256"
        }
      ],
      "stateMutability": "nonpayable",
      "type": "constructor"
    },
    {
      "anonymous": false,
      "inputs": [
        {
          "indexed": true,
          "internalType": "address",
          "name": "owner",
          "type": "address"
        },
        {
          "indexed": true,
          "internalType": "address",
          "name": "spender",
          "type": "address"
        },
        {
          "indexed": false,
          "internalType": "uint256",
          "name": "value",
          "type": "uint256"
        }
      ],
      "name": "Approval",
      "type": "event"
    },
    {
      "anonymous": false,
      "inputs": [
        {
          "indexed": true,
          "internalType": "address",
          "name": "delegator",
          "type": "address"
        },
        {
          "indexed": true,
          "internalType": "address",
          "name": "fromDelegate",
          "type": "address"
        },
        {
          "indexed": true,
          "internalType": "address",
          "name": "toDelegate",
          "type": "address"
        }
      ],
      "name": "DelegateChanged",
      "type": "event"
    },
    {
      "anonymous": false,
      "inputs": [
        {
          "indexed": true,
          "internalType": "address",
          "name": "delegate",
          "type": "address"
        },
        {
          "indexed": false,
          "internalType": "uint256",
          "name": "previousBalance",
          "type": "uint256"
        },
        {
          "indexed": false,
          "internalType": "uint256",
          "name": "newBalance",
          "type": "uint256"
        }
      ],
      "name": "DelegateVotesChanged",
      "type": "event"
    },
    {
      "anonymous": false,
      "inputs": [
        {
          "indexed": true,
          "internalType": "address",
          "name": "to",
          "type": "address"
        },
        {
          "indexed": false,
          "internalType": "uint256",
          "name": "value",
          "type": "uint256"
        }
      ],
      "name": "Lock",
      "type": "event"
    },
    {
      "anonymous": false,
      "inputs": [
        {
          "indexed": true,
          "internalType": "address",
          "name": "previousOwner",
          "type": "address"
        },
        {
          "indexed": true,
          "internalType": "address",
          "name": "newOwner",
          "type": "address"
        }
      ],
      "name": "OwnershipTransferred",
      "type": "event"
    },
    {
      "anonymous": false,
      "inputs": [
        {
          "indexed": true,
          "internalType": "address",
          "name": "from",
          "type": "address"
        },
        {
          "indexed": true,
          "internalType": "address",
          "name": "to",
          "type": "address"
        },
        {
          "indexed": false,
          "internalType": "uint256",
          "name": "value",
          "type": "uint256"
        }
      ],
      "name": "Transfer",
      "type": "event"
    },
    {
      "inputs": [],
      "name": "DELEGATION_TYPEHASH",
      "outputs": [
        {
          "internalType": "bytes32",
          "name": "",
          "type": "bytes32"
        }
      ],
      "stateMutability": "view",
      "type": "function"
    },
    {
      "inputs": [],
      "name": "DOMAIN_TYPEHASH",
      "outputs": [
        {
          "internalType": "bytes32",
          "name": "",
          "type": "bytes32"
        }
      ],
      "stateMutability": "view",
      "type": "function"
    },
    {
      "inputs": [
        {
          "internalType": "address",
          "name": "owner",
          "type": "address"
        },
        {
          "internalType": "address",
          "name": "spender",
          "type": "address"
        }
      ],
      "name": "allowance",
      "outputs": [
        {
          "internalType": "uint256",
          "name": "",
          "type": "uint256"
        }
      ],
      "stateMutability": "view",
      "type": "function"
    },
    {
      "inputs": [
        {
          "internalType": "address",
          "name": "spender",
          "type": "address"
        },
        {
          "internalType": "uint256",
          "name": "amount",
          "type": "uint256"
        }
      ],
      "name": "approve",
      "outputs": [
        {
          "internalType": "bool",
          "name": "",
          "type": "bool"
        }
      ],
      "stateMutability": "nonpayable",
      "type": "function"
    },
    {
      "inputs": [
        {
          "internalType": "address",
          "name": "account",
          "type": "address"
        }
      ],
      "name": "balanceOf",
      "outputs": [
        {
          "internalType": "uint256",
          "name": "",
          "type": "uint256"
        }
      ],
      "stateMutability": "view",
      "type": "function"
    },
    {
      "inputs": [
        {
          "internalType": "address",
          "name": "_account",
          "type": "address"
        },
        {
          "internalType": "uint256",
          "name": "_amount",
          "type": "uint256"
        }
      ],
      "name": "burn",
      "outputs": [],
      "stateMutability": "nonpayable",
      "type": "function"
    },
    {
      "inputs": [
        {
          "internalType": "address",
          "name": "_account",
          "type": "address"
        }
      ],
      "name": "canUnlockAmount",
      "outputs": [
        {
          "internalType": "uint256",
          "name": "",
          "type": "uint256"
        }
      ],
      "stateMutability": "view",
      "type": "function"
    },
    {
      "inputs": [],
      "name": "cap",
      "outputs": [
        {
          "internalType": "uint256",
          "name": "",
          "type": "uint256"
        }
      ],
      "stateMutability": "view",
      "type": "function"
    },
    {
      "inputs": [
        {
          "internalType": "address",
          "name": "",
          "type": "address"
        },
        {
          "internalType": "uint32",
          "name": "",
          "type": "uint32"
        }
      ],
      "name": "checkpoints",
      "outputs": [
        {
          "internalType": "uint32",
          "name": "fromBlock",
          "type": "uint32"
        },
        {
          "internalType": "uint256",
          "name": "votes",
          "type": "uint256"
        }
      ],
      "stateMutability": "view",
      "type": "function"
    },
    {
      "inputs": [],
      "name": "decimals",
      "outputs": [
        {
          "internalType": "uint8",
          "name": "",
          "type": "uint8"
        }
      ],
      "stateMutability": "view",
      "type": "function"
    },
    {
      "inputs": [
        {
          "internalType": "address",
          "name": "spender",
          "type": "address"
        },
        {
          "internalType": "uint256",
          "name": "subtractedValue",
          "type": "uint256"
        }
      ],
      "name": "decreaseAllowance",
      "outputs": [
        {
          "internalType": "bool",
          "name": "",
          "type": "bool"
        }
      ],
      "stateMutability": "nonpayable",
      "type": "function"
    },
    {
      "inputs": [
        {
          "internalType": "address",
          "name": "delegatee",
          "type": "address"
        }
      ],
      "name": "delegate",
      "outputs": [],
      "stateMutability": "nonpayable",
      "type": "function"
    },
    {
      "inputs": [
        {
          "internalType": "address",
          "name": "delegatee",
          "type": "address"
        },
        {
          "internalType": "uint256",
          "name": "nonce",
          "type": "uint256"
        },
        {
          "internalType": "uint256",
          "name": "expiry",
          "type": "uint256"
        },
        {
          "internalType": "uint8",
          "name": "v",
          "type": "uint8"
        },
        {
          "internalType": "bytes32",
          "name": "r",
          "type": "bytes32"
        },
        {
          "internalType": "bytes32",
          "name": "s",
          "type": "bytes32"
        }
      ],
      "name": "delegateBySig",
      "outputs": [],
      "stateMutability": "nonpayable",
      "type": "function"
    },
    {
      "inputs": [
        {
          "internalType": "address",
          "name": "delegator",
          "type": "address"
        }
      ],
      "name": "delegates",
      "outputs": [
        {
          "internalType": "address",
          "name": "",
          "type": "address"
        }
      ],
      "stateMutability": "view",
      "type": "function"
    },
    {
      "inputs": [],
      "name": "endReleaseBlock",
      "outputs": [
        {
          "internalType": "uint256",
          "name": "",
          "type": "uint256"
        }
      ],
      "stateMutability": "view",
      "type": "function"
    },
    {
      "inputs": [
        {
          "internalType": "address",
          "name": "account",
          "type": "address"
        }
      ],
      "name": "getCurrentVotes",
      "outputs": [
        {
          "internalType": "uint256",
          "name": "",
          "type": "uint256"
        }
      ],
      "stateMutability": "view",
      "type": "function"
    },
    {
      "inputs": [
        {
          "internalType": "address",
          "name": "account",
          "type": "address"
        },
        {
          "internalType": "uint256",
          "name": "blockNumber",
          "type": "uint256"
        }
      ],
      "name": "getPriorVotes",
      "outputs": [
        {
          "internalType": "uint256",
          "name": "",
          "type": "uint256"
        }
      ],
      "stateMutability": "view",
      "type": "function"
    },
    {
      "inputs": [
        {
          "internalType": "address",
          "name": "spender",
          "type": "address"
        },
        {
          "internalType": "uint256",
          "name": "addedValue",
          "type": "uint256"
        }
      ],
      "name": "increaseAllowance",
      "outputs": [
        {
          "internalType": "bool",
          "name": "",
          "type": "bool"
        }
      ],
      "stateMutability": "nonpayable",
      "type": "function"
    },
    {
      "inputs": [
        {
          "internalType": "address",
          "name": "_account",
          "type": "address"
        }
      ],
      "name": "lastUnlockBlock",
      "outputs": [
        {
          "internalType": "uint256",
          "name": "",
          "type": "uint256"
        }
      ],
      "stateMutability": "view",
      "type": "function"
    },
    {
      "inputs": [
        {
          "internalType": "address",
          "name": "_account",
          "type": "address"
        },
        {
          "internalType": "uint256",
          "name": "_amount",
          "type": "uint256"
        }
      ],
      "name": "lock",
      "outputs": [],
      "stateMutability": "nonpayable",
      "type": "function"
    },
    {
      "inputs": [
        {
          "internalType": "address",
          "name": "_account",
          "type": "address"
        }
      ],
      "name": "lockOf",
      "outputs": [
        {
          "internalType": "uint256",
          "name": "",
          "type": "uint256"
        }
      ],
      "stateMutability": "view",
      "type": "function"
    },
    {
      "inputs": [
        {
          "internalType": "address",
          "name": "_to",
          "type": "address"
        },
        {
          "internalType": "uint256",
          "name": "_amount",
          "type": "uint256"
        }
      ],
      "name": "manualMint",
      "outputs": [],
      "stateMutability": "nonpayable",
      "type": "function"
    },
    {
      "inputs": [],
      "name": "manualMintLimit",
      "outputs": [
        {
          "internalType": "uint256",
          "name": "",
          "type": "uint256"
        }
      ],
      "stateMutability": "view",
      "type": "function"
    },
    {
      "inputs": [],
      "name": "manualMinted",
      "outputs": [
        {
          "internalType": "uint256",
          "name": "",
          "type": "uint256"
        }
      ],
      "stateMutability": "view",
      "type": "function"
    },
    {
      "inputs": [
        {
          "internalType": "address",
          "name": "_to",
          "type": "address"
        },
        {
          "internalType": "uint256",
          "name": "_amount",
          "type": "uint256"
        }
      ],
      "name": "mint",
      "outputs": [],
      "stateMutability": "nonpayable",
      "type": "function"
    },
    {
      "inputs": [],
      "name": "name",
      "outputs": [
        {
          "internalType": "string",
          "name": "",
          "type": "string"
        }
      ],
      "stateMutability": "view",
      "type": "function"
    },
    {
      "inputs": [
        {
          "internalType": "address",
          "name": "",
          "type": "address"
        }
      ],
      "name": "nonces",
      "outputs": [
        {
          "internalType": "uint256",
          "name": "",
          "type": "uint256"
        }
      ],
      "stateMutability": "view",
      "type": "function"
    },
    {
      "inputs": [
        {
          "internalType": "address",
          "name": "",
          "type": "address"
        }
      ],
      "name": "numCheckpoints",
      "outputs": [
        {
          "internalType": "uint32",
          "name": "",
          "type": "uint32"
        }
      ],
      "stateMutability": "view",
      "type": "function"
    },
    {
      "inputs": [],
      "name": "owner",
      "outputs": [
        {
          "internalType": "address",
          "name": "",
          "type": "address"
        }
      ],
      "stateMutability": "view",
      "type": "function"
    },
    {
      "inputs": [],
      "name": "renounceOwnership",
      "outputs": [],
      "stateMutability": "nonpayable",
      "type": "function"
    },
    {
      "inputs": [
        {
          "internalType": "uint256",
          "name": "_startReleaseBlock",
          "type": "uint256"
        },
        {
          "internalType": "uint256",
          "name": "_endReleaseBlock",
          "type": "uint256"
        }
      ],
      "name": "setReleaseBlock",
      "outputs": [],
      "stateMutability": "nonpayable",
      "type": "function"
    },
    {
      "inputs": [],
      "name": "startReleaseBlock",
      "outputs": [
        {
          "internalType": "uint256",
          "name": "",
          "type": "uint256"
        }
      ],
      "stateMutability": "view",
      "type": "function"
    },
    {
      "inputs": [],
      "name": "symbol",
      "outputs": [
        {
          "internalType": "string",
          "name": "",
          "type": "string"
        }
      ],
      "stateMutability": "view",
      "type": "function"
    },
    {
      "inputs": [
        {
          "internalType": "address",
          "name": "_account",
          "type": "address"
        }
      ],
      "name": "totalBalanceOf",
      "outputs": [
        {
          "internalType": "uint256",
          "name": "",
          "type": "uint256"
        }
      ],
      "stateMutability": "view",
      "type": "function"
    },
    {
      "inputs": [],
      "name": "totalLock",
      "outputs": [
        {
          "internalType": "uint256",
          "name": "",
          "type": "uint256"
        }
      ],
      "stateMutability": "view",
      "type": "function"
    },
    {
      "inputs": [],
      "name": "totalSupply",
      "outputs": [
        {
          "internalType": "uint256",
          "name": "",
          "type": "uint256"
        }
      ],
      "stateMutability": "view",
      "type": "function"
    },
    {
      "inputs": [
        {
          "internalType": "address",
          "name": "recipient",
          "type": "address"
        },
        {
          "internalType": "uint256",
          "name": "amount",
          "type": "uint256"
        }
      ],
      "name": "transfer",
      "outputs": [
        {
          "internalType": "bool",
          "name": "",
          "type": "bool"
        }
      ],
      "stateMutability": "nonpayable",
      "type": "function"
    },
    {
      "inputs": [
        {
          "internalType": "address",
          "name": "_to",
          "type": "address"
        }
      ],
      "name": "transferAll",
      "outputs": [],
      "stateMutability": "nonpayable",
      "type": "function"
    },
    {
      "inputs": [
        {
          "internalType": "address",
          "name": "sender",
          "type": "address"
        },
        {
          "internalType": "address",
          "name": "recipient",
          "type": "address"
        },
        {
          "internalType": "uint256",
          "name": "amount",
          "type": "uint256"
        }
      ],
      "name": "transferFrom",
      "outputs": [
        {
          "internalType": "bool",
          "name": "",
          "type": "bool"
        }
      ],
      "stateMutability": "nonpayable",
      "type": "function"
    },
    {
      "inputs": [
        {
          "internalType": "address",
          "name": "newOwner",
          "type": "address"
        }
      ],
      "name": "transferOwnership",
      "outputs": [],
      "stateMutability": "nonpayable",
      "type": "function"
    },
    {
      "inputs": [],
      "name": "unlock",
      "outputs": [],
      "stateMutability": "nonpayable",
      "type": "function"
    },
    {
      "inputs": [],
      "name": "unlockedSupply",
      "outputs": [
        {
          "internalType": "uint256",
          "name": "",
          "type": "uint256"
        }
      ],
      "stateMutability": "view",
      "type": "function"
    }
  ],
  "bytecode": "0x60806040526a52b7d2dcc80cd2e40000006006556a04f68ca6d8cd91c6000000600a556000600b553480156200003457600080fd5b50604051620032c9380380620032c9833981810160405260408110156200005a57600080fd5b508051602091820151604080518082018252600c81526b2237b8383632902a37b5b2b760a11b81860190815282518084019093526003808452620444f560ec1b968401969096528151949593949193620000b792909190620009a6565b508051620000cd906004906020840190620009a6565b50506005805460ff19166012179055506000620000f26001600160e01b03620001ce16565b60058054610100600160a81b0319166101006001600160a01b03841690810291909117909155604051919250906000907f8be0079c531659141344cd1fd0a4f28419497f9722a3daafe3b4186f6b6457e0908290a350818111620001885760405162461bcd60e51b8152600401808060200182810382526023815260200180620032a66023913960400191505060405180910390fd5b6200019d60126001600160e01b03620001d316565b60088290556009819055620001c63369021e19e0c9bab24000006001600160e01b03620001e916565b505062000a48565b335b90565b6005805460ff191660ff92909216919091179055565b620001fc6001600160e01b03620001ce16565b6001600160a01b0316620002186001600160e01b03620002d616565b6001600160a01b03161462000263576040805162461bcd60e51b8152602060048201819052602482015260008051602062003286833981519152604482015290519081900360640190fd5b600a54600b541115620002bd576040805162461bcd60e51b815260206004820152601360248201527f6d696e74206c696d697420657863656564656400000000000000000000000000604482015290519081900360640190fd5b620002d282826001600160e01b03620002ea16565b5050565b60055461010090046001600160a01b031690565b620002fd6001600160e01b03620001ce16565b6001600160a01b0316620003196001600160e01b03620002d616565b6001600160a01b03161462000364576040805162461bcd60e51b8152602060048201819052602482015260008051602062003286833981519152604482015290519081900360640190fd5b620003776001600160e01b036200042b16565b620003a3826200038f6001600160e01b036200043116565b6200043760201b62001e851790919060201c565b1115620003e6576040805162461bcd60e51b815260206004820152600c60248201526b18d85c08195e18d95959195960a21b604482015290519081900360640190fd5b620003fb82826001600160e01b036200049916565b6001600160a01b038083166000908152600e6020526040812054620002d29216836001600160e01b03620005b116565b60065490565b60025490565b60008282018381101562000492576040805162461bcd60e51b815260206004820152601b60248201527f536166654d6174683a206164646974696f6e206f766572666c6f770000000000604482015290519081900360640190fd5b9392505050565b6001600160a01b038216620004f5576040805162461bcd60e51b815260206004820152601f60248201527f45524332303a206d696e7420746f20746865207a65726f206164647265737300604482015290519081900360640190fd5b6200050c600083836001600160e01b036200073016565b62000528816002546200043760201b62001e851790919060201c565b6002556001600160a01b038216600090815260208181526040909120546200055b91839062001e8562000437821b17901c565b6001600160a01b0383166000818152602081815260408083209490945583518581529351929391927fddf252ad1be2c89b69c2b068fc378daa952ba7f163c4a11628f55a4df523b3ef9281900390910190a35050565b816001600160a01b0316836001600160a01b031614158015620005d45750600081115b1562000730576001600160a01b0383161562000685576001600160a01b03831660009081526010602052604081205463ffffffff169081620006185760006200064a565b6001600160a01b0385166000908152600f6020908152604080832063ffffffff60001987011684529091529020600101545b905060006200066884836200073560201b62001b6a1790919060201c565b905062000681868484846001600160e01b036200079316565b5050505b6001600160a01b0382161562000730576001600160a01b03821660009081526010602052604081205463ffffffff169081620006c3576000620006f5565b6001600160a01b0384166000908152600f6020908152604080832063ffffffff60001987011684529091529020600101545b905060006200071384836200043760201b62001e851790919060201c565b90506200072c858484846001600160e01b036200079316565b5050505b505050565b6000828211156200078d576040805162461bcd60e51b815260206004820152601e60248201527f536166654d6174683a207375627472616374696f6e206f766572666c6f770000604482015290519081900360640190fd5b50900390565b6000620007c34360405180606001604052806036815260200162003250603691396001600160e01b036200090716565b905060008463ffffffff161180156200080d57506001600160a01b0385166000908152600f6020908152604080832063ffffffff6000198901811685529252909120548282169116145b156200084c576001600160a01b0385166000908152600f6020908152604080832063ffffffff60001989011684529091529020600101829055620008bd565b60408051808201825263ffffffff808416825260208083018681526001600160a01b038a166000818152600f84528681208b8616825284528681209551865490861663ffffffff19918216178755925160019687015590815260109092529390208054928801909116919092161790555b604080518481526020810184905281516001600160a01b038816927fdec2bacdd2f05b59de34da9b523dff8be42e5e38e818c82fdb0bae774387a724928290030190a25050505050565b60008164010000000084106200099e5760405162461bcd60e51b81526004018080602001828103825283818151815260200191508051906020019080838360005b838110156200096257818101518382015260200162000948565b50505050905090810190601f168015620009905780820380516001836020036101000a031916815260200191505b509250505060405180910390fd5b509192915050565b828054600181600116156101000203166002900490600052602060002090601f016020900481019282601f10620009e957805160ff191683800117855562000a19565b8280016001018555821562000a19579182015b8281111562000a19578251825591602001919060010190620009fc565b5062000a2792915062000a2b565b5090565b620001d091905b8082111562000a27576000815560010162000a32565b6127f88062000a586000396000f3fe608060405234801561001057600080fd5b506004361061025e5760003560e01c80637ee4161511610146578063c3cda520116100c3578063e6b2fb4a11610087578063e6b2fb4a146107a7578063e7a324dc146107af578063f1127ed8146107b7578063f2fde38b14610809578063f85b84a41461082f578063fd3d27b8146108375761025e565b8063c3cda520146106db578063ce4079ef14610722578063d68afa391461072a578063dd62ed3e1461074d578063e4c5ff461461077b5761025e565b8063a3a7e7f31161010a578063a3a7e7f31461062f578063a457c2d714610655578063a69df4b514610681578063a9059cbb14610689578063b4b5ea57146106b55761025e565b80637ee41615146105c557806389a2867c146105cd5780638da5cb5b146105f357806395d89b41146105fb5780639dc29fac146106035761025e565b80633a1aae35116101df5780635c19a95c116101a35780635c19a95c146104e05780636fcfff451461050657806370a0823114610545578063715018a61461056b578063782d6fe1146105735780637ecebe001461059f5761025e565b80633a1aae351461041e57806340c10f19146104265780634b0ee02a14610452578063587cde1e146104785780635a46d3b5146104ba5761025e565b806323b872dd1161022657806323b872dd14610368578063282d3fdf1461039e578063313ce567146103cc578063355274ea146103ea57806339509351146103f25761025e565b806306fdde0314610263578063095ea7b3146102e057806318160ddd14610320578063202b17601461033a57806320606b7014610360575b600080fd5b61026b61083f565b6040805160208082528351818301528351919283929083019185019080838360005b838110156102a557818101518382015260200161028d565b50505050905090810190601f1680156102d25780820380516001836020036101000a031916815260200191505b509250505060405180910390f35b61030c600480360360408110156102f657600080fd5b506001600160a01b0381351690602001356108d5565b604080519115158252519081900360200190f35b6103286108f3565b60408051918252519081900360200190f35b6103286004803603602081101561035057600080fd5b50356001600160a01b03166108f9565b6103286109d7565b61030c6004803603606081101561037e57600080fd5b506001600160a01b038135811691602081013590911690604001356109f2565b6103ca600480360360408110156103b457600080fd5b506001600160a01b038135169060200135610a7f565b005b6103d4610c6d565b6040805160ff9092168252519081900360200190f35b610328610c76565b61030c6004803603604081101561040857600080fd5b506001600160a01b038135169060200135610c7c565b610328610cd0565b6103ca6004803603604081101561043c57600080fd5b506001600160a01b038135169060200135610cd6565b6103286004803603602081101561046857600080fd5b50356001600160a01b0316610dcd565b61049e6004803603602081101561048e57600080fd5b50356001600160a01b0316610e00565b604080516001600160a01b039092168252519081900360200190f35b610328600480360360208110156104d057600080fd5b50356001600160a01b0316610e1e565b6103ca600480360360208110156104f657600080fd5b50356001600160a01b0316610e39565b61052c6004803603602081101561051c57600080fd5b50356001600160a01b0316610e46565b6040805163ffffffff9092168252519081900360200190f35b6103286004803603602081101561055b57600080fd5b50356001600160a01b0316610e5e565b6103ca610e79565b6103286004803603604081101561058957600080fd5b506001600160a01b038135169060200135610f2b565b610328600480360360208110156105b557600080fd5b50356001600160a01b0316611133565b610328611145565b610328600480360360208110156105e357600080fd5b50356001600160a01b031661114b565b61049e611166565b61026b61117a565b6103ca6004803603604081101561061957600080fd5b506001600160a01b0381351690602001356111db565b6103ca6004803603602081101561064557600080fd5b50356001600160a01b0316611247565b61030c6004803603604081101561066b57600080fd5b506001600160a01b03813516906020013561133b565b6103ca6113a9565b61030c6004803603604081101561069f57600080fd5b506001600160a01b03813516906020013561146d565b610328600480360360208110156106cb57600080fd5b50356001600160a01b0316611481565b6103ca600480360360c08110156106f157600080fd5b506001600160a01b038135169060208101359060408101359060ff6060820135169060808101359060a001356114e5565b61032861175b565b6103ca6004803603604081101561074057600080fd5b5080359060200135611761565b6103286004803603604081101561076357600080fd5b506001600160a01b038135811691602001351661180c565b6103ca6004803603604081101561079157600080fd5b506001600160a01b038135169060200135611837565b6103286118f2565b6103286118f8565b6107e9600480360360408110156107cd57600080fd5b5080356001600160a01b0316906020013563ffffffff16611913565b6040805163ffffffff909316835260208301919091528051918290030190f35b6103ca6004803603602081101561081f57600080fd5b50356001600160a01b0316611940565b610328611a4e565b610328611a54565b60038054604080516020601f60026000196101006001881615020190951694909404938401819004810282018101909252828152606093909290918301828280156108cb5780601f106108a0576101008083540402835291602001916108cb565b820191906000526020600020905b8154815290600101906020018083116108ae57829003601f168201915b5050505050905090565b60006108e96108e2611a7a565b8484611a7e565b5060015b92915050565b60025490565b600060085443101561090d575060006109d2565b600954431061093557506001600160a01b0381166000908152600c60205260409020546109d2565b6001600160a01b0382166000908152600d602052604081205461095f90439063ffffffff611b6a16565b6001600160a01b0384166000908152600d6020526040812054600954929350909161098f9163ffffffff611b6a16565b6001600160a01b0385166000908152600c60205260409020549091506109cd9082906109c1908563ffffffff611bc716565b9063ffffffff611c2016565b925050505b919050565b6040518060436125cd82396043019050604051809103902081565b60006109ff848484611c87565b610a7584610a0b611a7a565b610a7085604051806060016040528060288152602001612667602891396001600160a01b038a16600090815260016020526040812090610a49611a7a565b6001600160a01b03168152602081019190915260400160002054919063ffffffff611dee16565b611a7e565b5060019392505050565b610a87611a7a565b6001600160a01b0316610a98611166565b6001600160a01b031614610ae1576040805162461bcd60e51b8152602060048201819052602482015260008051602061268f833981519152604482015290519081900360640190fd5b6001600160a01b038216610b34576040805162461bcd60e51b81526020600482015260156024820152746e6f206c6f636b20746f206164647265737328302960581b604482015290519081900360640190fd5b610b3d82610e5e565b811115610b88576040805162461bcd60e51b81526020600482015260146024820152736e6f206c6f636b206f7665722062616c616e636560601b604482015290519081900360640190fd5b610b93823083611c87565b6001600160a01b0382166000908152600c6020526040902054610bbc908263ffffffff611e8516565b6001600160a01b0383166000908152600c6020526040902055600754610be8908263ffffffff611e8516565b6007556008546001600160a01b0383166000908152600d60205260409020541015610c2a576008546001600160a01b0383166000908152600d60205260409020555b6040805182815290516001600160a01b038416917f625fed9875dada8643f2418b838ae0bc78d9a148a18eee4ee1979ff0f3f5d427919081900360200190a25050565b60055460ff1690565b60065490565b60006108e9610c89611a7a565b84610a708560016000610c9a611a7a565b6001600160a01b03908116825260208083019390935260409182016000908120918c16815292529020549063ffffffff611e8516565b60075490565b610cde611a7a565b6001600160a01b0316610cef611166565b6001600160a01b031614610d38576040805162461bcd60e51b8152602060048201819052602482015260008051602061268f833981519152604482015290519081900360640190fd5b610d40610c76565b610d5882610d4c6108f3565b9063ffffffff611e8516565b1115610d9a576040805162461bcd60e51b815260206004820152600c60248201526b18d85c08195e18d95959195960a21b604482015290519081900360640190fd5b610da48282611edf565b6001600160a01b038083166000908152600e6020526040812054610dc9921683611fdb565b5050565b60006108ed610ddb83610e5e565b6001600160a01b0384166000908152600c60205260409020549063ffffffff611e8516565b6001600160a01b039081166000908152600e60205260409020541690565b6001600160a01b03166000908152600c602052604090205490565b610e433382612129565b50565b60106020526000908152604090205463ffffffff1681565b6001600160a01b031660009081526020819052604090205490565b610e81611a7a565b6001600160a01b0316610e92611166565b6001600160a01b031614610edb576040805162461bcd60e51b8152602060048201819052602482015260008051602061268f833981519152604482015290519081900360640190fd5b60055460405160009161010090046001600160a01b0316907f8be0079c531659141344cd1fd0a4f28419497f9722a3daafe3b4186f6b6457e0908390a360058054610100600160a81b0319169055565b6000438210610f6b5760405162461bcd60e51b81526004018080602001828103825260298152602001806125a46029913960400191505060405180910390fd5b6001600160a01b03831660009081526010602052604090205463ffffffff1680610f995760009150506108ed565b6001600160a01b0384166000908152600f6020908152604080832063ffffffff600019860181168552925290912054168310611008576001600160a01b0384166000908152600f602090815260408083206000199490940163ffffffff168352929052206001015490506108ed565b6001600160a01b0384166000908152600f6020908152604080832083805290915290205463ffffffff168310156110435760009150506108ed565b600060001982015b8163ffffffff168163ffffffff1611156110fc57600282820363ffffffff1604810361107561248d565b506001600160a01b0387166000908152600f6020908152604080832063ffffffff8086168552908352928190208151808301909252805490931680825260019093015491810191909152908714156110d7576020015194506108ed9350505050565b805163ffffffff168711156110ee578193506110f5565b6001820392505b505061104b565b506001600160a01b0385166000908152600f6020908152604080832063ffffffff9094168352929052206001015491505092915050565b60116020526000908152604090205481565b60085481565b6001600160a01b03166000908152600d602052604090205490565b60055461010090046001600160a01b031690565b60048054604080516020601f60026000196101006001881615020190951694909404938401819004810282018101909252828152606093909290918301828280156108cb5780601f106108a0576101008083540402835291602001916108cb565b6111e3611a7a565b6001600160a01b03166111f4611166565b6001600160a01b03161461123d576040805162461bcd60e51b8152602060048201819052602482015260008051602061268f833981519152604482015290519081900360640190fd5b610dc982826121be565b336000908152600c6020526040808220546001600160a01b03841683529120546112769163ffffffff611e8516565b6001600160a01b0382166000908152600c6020908152604080832093909355600854600d9091529190205410156112c4576008546001600160a01b0382166000908152600d60205260409020555b336000908152600d6020526040808220546001600160a01b0384168352912054101561130b57336000908152600d6020526040808220546001600160a01b03841683529120555b336000818152600c60209081526040808320839055600d909152812055610e43908261133682610e5e565b611c87565b60006108e9611348611a7a565b84610a708560405180606001604052806025815260200161277b6025913960016000611372611a7a565b6001600160a01b03908116825260208083019390935260409182016000908120918d1681529252902054919063ffffffff611dee16565b336000908152600c60205260409020546113fe576040805162461bcd60e51b81526020600482015260116024820152706e6f206c6f636b656420444f50504c457360781b604482015290519081900360640190fd5b6000611409336108f9565b9050611416303383611c87565b336000908152600c6020526040902054611436908263ffffffff611b6a16565b336000908152600c6020908152604080832093909355600d905220439055600754611467908263ffffffff611b6a16565b60075550565b60006108e961147a611a7a565b8484611c87565b6001600160a01b03811660009081526010602052604081205463ffffffff16806114ac5760006114de565b6001600160a01b0383166000908152600f6020908152604080832063ffffffff60001986011684529091529020600101545b9392505050565b600060405180806125cd604391396043019050604051809103902061150861083f565b805190602001206115176122c6565b3060405160200180858152602001848152602001838152602001826001600160a01b03166001600160a01b0316815260200194505050505060405160208183030381529060405280519060200120905060006040518080612741603a91396040805191829003603a0182206020808401919091526001600160a01b038c1683830152606083018b905260808084018b90528251808503909101815260a08401835280519082012061190160f01b60c085015260c2840187905260e2808501829052835180860390910181526101028501808552815191840191909120600091829052610122860180865281905260ff8c1661014287015261016286018b905261018286018a9052935191965092945091926001926101a28083019392601f198301929081900390910190855afa158015611655573d6000803e3d6000fd5b5050604051601f1901519150506001600160a01b0381166116a75760405162461bcd60e51b81526004018080602001828103825260288152602001806125326028913960400191505060405180910390fd5b6001600160a01b038116600090815260116020526040902080546001810190915589146117055760405162461bcd60e51b81526004018080602001828103825260248152602001806125806024913960400191505060405180910390fd5b874211156117445760405162461bcd60e51b81526004018080602001828103825260288152602001806126af6028913960400191505060405180910390fd5b61174e818b612129565b505050505b505050505050565b60095481565b611769611a7a565b6001600160a01b031661177a611166565b6001600160a01b0316146117c3576040805162461bcd60e51b8152602060048201819052602482015260008051602061268f833981519152604482015290519081900360640190fd5b8181116118015760405162461bcd60e51b81526004018080602001828103825260238152602001806127a06023913960400191505060405180910390fd5b600891909155600955565b6001600160a01b03918216600090815260016020908152604080832093909416825291909152205490565b61183f611a7a565b6001600160a01b0316611850611166565b6001600160a01b031614611899576040805162461bcd60e51b8152602060048201819052602482015260008051602061268f833981519152604482015290519081900360640190fd5b600a54600b5411156118e8576040805162461bcd60e51b81526020600482015260136024820152721b5a5b9d081b1a5b5a5d08195e18d959591959606a1b604482015290519081900360640190fd5b610dc98282610cd6565b600b5481565b60405180603a6127418239603a019050604051809103902081565b600f6020908152600092835260408084209091529082529020805460019091015463ffffffff9091169082565b611948611a7a565b6001600160a01b0316611959611166565b6001600160a01b0316146119a2576040805162461bcd60e51b8152602060048201819052602482015260008051602061268f833981519152604482015290519081900360640190fd5b6001600160a01b0381166119e75760405162461bcd60e51b81526004018080602001828103825260268152602001806124ea6026913960400191505060405180910390fd5b6005546040516001600160a01b0380841692610100900416907f8be0079c531659141344cd1fd0a4f28419497f9722a3daafe3b4186f6b6457e090600090a3600580546001600160a01b0390921661010002610100600160a81b0319909216919091179055565b600a5481565b6000611a75611a61610cd0565b611a696108f3565b9063ffffffff611b6a16565b905090565b3390565b6001600160a01b038316611ac35760405162461bcd60e51b815260040180806020018281038252602481526020018061271d6024913960400191505060405180910390fd5b6001600160a01b038216611b085760405162461bcd60e51b81526004018080602001828103825260228152602001806125106022913960400191505060405180910390fd5b6001600160a01b03808416600081815260016020908152604080832094871680845294825291829020859055815185815291517f8c5be1e5ebec7d5bd14f71427d1e84f3dd0314c0f7b2291e5b200ac8c7c3b9259281900390910190a3505050565b600082821115611bc1576040805162461bcd60e51b815260206004820152601e60248201527f536166654d6174683a207375627472616374696f6e206f766572666c6f770000604482015290519081900360640190fd5b50900390565b600082611bd6575060006108ed565b82820282848281611be357fe5b04146114de5760405162461bcd60e51b81526004018080602001828103825260218152602001806126466021913960400191505060405180910390fd5b6000808211611c76576040805162461bcd60e51b815260206004820152601a60248201527f536166654d6174683a206469766973696f6e206279207a65726f000000000000604482015290519081900360640190fd5b818381611c7f57fe5b049392505050565b6001600160a01b038316611ccc5760405162461bcd60e51b81526004018080602001828103825260258152602001806126f86025913960400191505060405180910390fd5b6001600160a01b038216611d115760405162461bcd60e51b81526004018080602001828103825260238152602001806124a56023913960400191505060405180910390fd5b611d1c838383612124565b611d5f8160405180606001604052806026815260200161255a602691396001600160a01b038616600090815260208190526040902054919063ffffffff611dee16565b6001600160a01b038085166000908152602081905260408082209390935590841681522054611d94908263ffffffff611e8516565b6001600160a01b038084166000818152602081815260409182902094909455805185815290519193928716927fddf252ad1be2c89b69c2b068fc378daa952ba7f163c4a11628f55a4df523b3ef92918290030190a3505050565b60008184841115611e7d5760405162461bcd60e51b81526004018080602001828103825283818151815260200191508051906020019080838360005b83811015611e42578181015183820152602001611e2a565b50505050905090810190601f168015611e6f5780820380516001836020036101000a031916815260200191505b509250505060405180910390fd5b505050900390565b6000828201838110156114de576040805162461bcd60e51b815260206004820152601b60248201527f536166654d6174683a206164646974696f6e206f766572666c6f770000000000604482015290519081900360640190fd5b6001600160a01b038216611f3a576040805162461bcd60e51b815260206004820152601f60248201527f45524332303a206d696e7420746f20746865207a65726f206164647265737300604482015290519081900360640190fd5b611f4660008383612124565b600254611f59908263ffffffff611e8516565b6002556001600160a01b038216600090815260208190526040902054611f85908263ffffffff611e8516565b6001600160a01b0383166000818152602081815260408083209490945583518581529351929391927fddf252ad1be2c89b69c2b068fc378daa952ba7f163c4a11628f55a4df523b3ef9281900390910190a35050565b816001600160a01b0316836001600160a01b031614158015611ffd5750600081115b15612124576001600160a01b03831615612095576001600160a01b03831660009081526010602052604081205463ffffffff16908161203d57600061206f565b6001600160a01b0385166000908152600f6020908152604080832063ffffffff60001987011684529091529020600101545b90506000612083828563ffffffff611b6a16565b9050612091868484846122ca565b5050505b6001600160a01b03821615612124576001600160a01b03821660009081526010602052604081205463ffffffff1690816120d0576000612102565b6001600160a01b0384166000908152600f6020908152604080832063ffffffff60001987011684529091529020600101545b90506000612116828563ffffffff611e8516565b9050611753858484846122ca565b505050565b6001600160a01b038083166000908152600e60205260408120549091169061215084610e5e565b6001600160a01b038581166000818152600e602052604080822080546001600160a01b031916898616908117909155905194955093928616927f3134e8a2e6d97e929a7e54011ea5485d7d196dd5f0ba4d4ef95803e8e3fc257f9190a46121b8828483611fdb565b50505050565b6001600160a01b0382166122035760405162461bcd60e51b81526004018080602001828103825260218152602001806126d76021913960400191505060405180910390fd5b61220f82600083612124565b612252816040518060600160405280602281526020016124c8602291396001600160a01b038516600090815260208190526040902054919063ffffffff611dee16565b6001600160a01b03831660009081526020819052604090205560025461227e908263ffffffff611b6a16565b6002556040805182815290516000916001600160a01b038516917fddf252ad1be2c89b69c2b068fc378daa952ba7f163c4a11628f55a4df523b3ef9181900360200190a35050565b4690565b60006122ee436040518060600160405280603681526020016126106036913961242f565b905060008463ffffffff1611801561233757506001600160a01b0385166000908152600f6020908152604080832063ffffffff6000198901811685529252909120548282169116145b15612374576001600160a01b0385166000908152600f6020908152604080832063ffffffff600019890116845290915290206001018290556123e5565b60408051808201825263ffffffff808416825260208083018681526001600160a01b038a166000818152600f84528681208b8616825284528681209551865490861663ffffffff19918216178755925160019687015590815260109092529390208054928801909116919092161790555b604080518481526020810184905281516001600160a01b038816927fdec2bacdd2f05b59de34da9b523dff8be42e5e38e818c82fdb0bae774387a724928290030190a25050505050565b60008164010000000084106124855760405162461bcd60e51b8152602060048201818152835160248401528351909283926044909101919085019080838360008315611e42578181015183820152602001611e2a565b509192915050565b60408051808201909152600080825260208201529056fe45524332303a207472616e7366657220746f20746865207a65726f206164647265737345524332303a206275726e20616d6f756e7420657863656564732062616c616e63654f776e61626c653a206e6577206f776e657220697320746865207a65726f206164647265737345524332303a20617070726f766520746f20746865207a65726f2061646472657373444f50504c453a3a64656c656761746542795369673a20696e76616c6964207369676e617475726545524332303a207472616e7366657220616d6f756e7420657863656564732062616c616e6365444f50504c453a3a64656c656761746542795369673a20696e76616c6964206e6f6e6365444f50504c453a3a6765745072696f72566f7465733a206e6f74207965742064657465726d696e6564454950373132446f6d61696e28737472696e67206e616d652c75696e7432353620636861696e49642c6164647265737320766572696679696e67436f6e747261637429444f50504c453a3a5f7772697465436865636b706f696e743a20626c6f636b206e756d62657220657863656564732033322062697473536166654d6174683a206d756c7469706c69636174696f6e206f766572666c6f7745524332303a207472616e7366657220616d6f756e74206578636565647320616c6c6f77616e63654f776e61626c653a2063616c6c6572206973206e6f7420746865206f776e6572444f50504c453a3a64656c656761746542795369673a207369676e6174757265206578706972656445524332303a206275726e2066726f6d20746865207a65726f206164647265737345524332303a207472616e736665722066726f6d20746865207a65726f206164647265737345524332303a20617070726f76652066726f6d20746865207a65726f206164647265737344656c65676174696f6e28616464726573732064656c6567617465652c75696e74323536206e6f6e63652c75696e74323536206578706972792945524332303a2064656372656173656420616c6c6f77616e63652062656c6f77207a65726f656e6452656c65617365426c6f636b203c20737461727452656c65617365426c6f636ba2646970667358221220a130ffa3a371a43a0a6a56d1577fc77cb54c6da0979fd4f3daf208e170fb117364736f6c63430006060033444f50504c453a3a5f7772697465436865636b706f696e743a20626c6f636b206e756d626572206578636565647320333220626974734f776e61626c653a2063616c6c6572206973206e6f7420746865206f776e6572656e6452656c65617365426c6f636b203c20737461727452656c65617365426c6f636b",
  "linkReferences": {},
  "deployedLinkReferences": {}
}