{
  "_format": "hh-sol-artifact-1",
  "contractName": "FairLaunch",
  "sourceName": "mainnet/FairLaunch.sol",
  "abi": [
    {
      "inputs": [
        {
          "internalType": "contract DoppleToken",
          "name": "_dopple",
          "type": "address"
        },
        {
          "internalType": "address",
          "name": "_devaddr",
          "type": "address"
        },
        {
          "internalType": "uint256",
          "name": "_dopplePerBlock",
          "type": "uint256"
        },
        {
          "internalType": "uint256",
          "name": "_startBlock",
          "type": "uint256"
        },
        {
          "internalType": "uint256",
          "name": "_bonusLockupBps",
          "type": "uint256"
        },
        {
          "internalType": "uint256",
          "name": "_bonusEndBlock",
          "type": "uint256"
        }
      ],
      "stateMutability": "nonpayable",
      "type": "constructor"
    },
    {
      "anonymous": false,
      "inputs": [
        {
          "indexed": true,
          "internalType": "address",
          "name": "user",
          "type": "address"
        },
        {
          "indexed": true,
          "internalType": "uint256",
          "name": "pid",
          "type": "uint256"
        },
        {
          "indexed": false,
          "internalType": "uint256",
          "name": "amount",
          "type": "uint256"
        }
      ],
      "name": "Deposit",
      "type": "event"
    },
    {
      "anonymous": false,
      "inputs": [
        {
          "indexed": true,
          "internalType": "address",
          "name": "user",
          "type": "address"
        },
        {
          "indexed": true,
          "internalType": "uint256",
          "name": "pid",
          "type": "uint256"
        },
        {
          "indexed": false,
          "internalType": "uint256",
          "name": "amount",
          "type": "uint256"
        }
      ],
      "name": "EmergencyWithdraw",
      "type": "event"
    },
    {
      "anonymous": false,
      "inputs": [
        {
          "indexed": true,
          "internalType": "address",
          "name": "previousOwner",
          "type": "address"
        },
        {
          "indexed": true,
          "internalType": "address",
          "name": "newOwner",
          "type": "address"
        }
      ],
      "name": "OwnershipTransferred",
      "type": "event"
    },
    {
      "anonymous": false,
      "inputs": [
        {
          "indexed": true,
          "internalType": "address",
          "name": "user",
          "type": "address"
        },
        {
          "indexed": true,
          "internalType": "uint256",
          "name": "pid",
          "type": "uint256"
        },
        {
          "indexed": false,
          "internalType": "uint256",
          "name": "amount",
          "type": "uint256"
        }
      ],
      "name": "Withdraw",
      "type": "event"
    },
    {
      "inputs": [
        {
          "internalType": "uint256",
          "name": "_allocPoint",
          "type": "uint256"
        },
        {
          "internalType": "address",
          "name": "_stakeToken",
          "type": "address"
        },
        {
          "internalType": "bool",
          "name": "_withUpdate",
          "type": "bool"
        }
      ],
      "name": "addPool",
      "outputs": [],
      "stateMutability": "nonpayable",
      "type": "function"
    },
    {
      "inputs": [],
      "name": "bonusEndBlock",
      "outputs": [
        {
          "internalType": "uint256",
          "name": "",
          "type": "uint256"
        }
      ],
      "stateMutability": "view",
      "type": "function"
    },
    {
      "inputs": [],
      "name": "bonusLockUpBps",
      "outputs": [
        {
          "internalType": "uint256",
          "name": "",
          "type": "uint256"
        }
      ],
      "stateMutability": "view",
      "type": "function"
    },
    {
      "inputs": [],
      "name": "bonusMultiplier",
      "outputs": [
        {
          "internalType": "uint256",
          "name": "",
          "type": "uint256"
        }
      ],
      "stateMutability": "view",
      "type": "function"
    },
    {
      "inputs": [
        {
          "internalType": "address",
          "name": "_for",
          "type": "address"
        },
        {
          "internalType": "uint256",
          "name": "_pid",
          "type": "uint256"
        },
        {
          "internalType": "uint256",
          "name": "_amount",
          "type": "uint256"
        }
      ],
      "name": "deposit",
      "outputs": [],
      "stateMutability": "nonpayable",
      "type": "function"
    },
    {
      "inputs": [],
      "name": "devaddr",
      "outputs": [
        {
          "internalType": "address",
          "name": "",
          "type": "address"
        }
      ],
      "stateMutability": "view",
      "type": "function"
    },
    {
      "inputs": [],
      "name": "dopple",
      "outputs": [
        {
          "internalType": "contract DoppleToken",
          "name": "",
          "type": "address"
        }
      ],
      "stateMutability": "view",
      "type": "function"
    },
    {
      "inputs": [],
      "name": "dopplePerBlock",
      "outputs": [
        {
          "internalType": "uint256",
          "name": "",
          "type": "uint256"
        }
      ],
      "stateMutability": "view",
      "type": "function"
    },
    {
      "inputs": [
        {
          "internalType": "uint256",
          "name": "_pid",
          "type": "uint256"
        }
      ],
      "name": "emergencyWithdraw",
      "outputs": [],
      "stateMutability": "nonpayable",
      "type": "function"
    },
    {
      "inputs": [
        {
          "internalType": "uint256",
          "name": "_lastRewardBlock",
          "type": "uint256"
        },
        {
          "internalType": "uint256",
          "name": "_currentBlock",
          "type": "uint256"
        }
      ],
      "name": "getMultiplier",
      "outputs": [
        {
          "internalType": "uint256",
          "name": "",
          "type": "uint256"
        }
      ],
      "stateMutability": "view",
      "type": "function"
    },
    {
      "inputs": [
        {
          "internalType": "uint256",
          "name": "_pid",
          "type": "uint256"
        }
      ],
      "name": "harvest",
      "outputs": [],
      "stateMutability": "nonpayable",
      "type": "function"
    },
    {
      "inputs": [
        {
          "internalType": "address",
          "name": "_stakeToken",
          "type": "address"
        }
      ],
      "name": "isDuplicatedPool",
      "outputs": [
        {
          "internalType": "bool",
          "name": "",
          "type": "bool"
        }
      ],
      "stateMutability": "view",
      "type": "function"
    },
    {
      "inputs": [
        {
          "internalType": "address",
          "name": "_to",
          "type": "address"
        },
        {
          "internalType": "uint256",
          "name": "_amount",
          "type": "uint256"
        }
      ],
      "name": "manualMint",
      "outputs": [],
      "stateMutability": "nonpayable",
      "type": "function"
    },
    {
      "inputs": [],
      "name": "massUpdatePools",
      "outputs": [],
      "stateMutability": "nonpayable",
      "type": "function"
    },
    {
      "inputs": [],
      "name": "owner",
      "outputs": [
        {
          "internalType": "address",
          "name": "",
          "type": "address"
        }
      ],
      "stateMutability": "view",
      "type": "function"
    },
    {
      "inputs": [
        {
          "internalType": "uint256",
          "name": "_pid",
          "type": "uint256"
        },
        {
          "internalType": "address",
          "name": "_user",
          "type": "address"
        }
      ],
      "name": "pendingDopple",
      "outputs": [
        {
          "internalType": "uint256",
          "name": "",
          "type": "uint256"
        }
      ],
      "stateMutability": "view",
      "type": "function"
    },
    {
      "inputs": [
        {
          "internalType": "uint256",
          "name": "",
          "type": "uint256"
        }
      ],
      "name": "poolInfo",
      "outputs": [
        {
          "internalType": "address",
          "name": "stakeToken",
          "type": "address"
        },
        {
          "internalType": "uint256",
          "name": "allocPoint",
          "type": "uint256"
        },
        {
          "internalType": "uint256",
          "name": "lastRewardBlock",
          "type": "uint256"
        },
        {
          "internalType": "uint256",
          "name": "accDopplePerShare",
          "type": "uint256"
        },
        {
          "internalType": "uint256",
          "name": "accDopplePerShareTilBonusEnd",
          "type": "uint256"
        }
      ],
      "stateMutability": "view",
      "type": "function"
    },
    {
      "inputs": [],
      "name": "poolLength",
      "outputs": [
        {
          "internalType": "uint256",
          "name": "",
          "type": "uint256"
        }
      ],
      "stateMutability": "view",
      "type": "function"
    },
    {
      "inputs": [],
      "name": "renounceOwnership",
      "outputs": [],
      "stateMutability": "nonpayable",
      "type": "function"
    },
    {
      "inputs": [
        {
          "internalType": "uint256",
          "name": "_bonusMultiplier",
          "type": "uint256"
        },
        {
          "internalType": "uint256",
          "name": "_bonusEndBlock",
          "type": "uint256"
        },
        {
          "internalType": "uint256",
          "name": "_bonusLockUpBps",
          "type": "uint256"
        }
      ],
      "name": "setBonus",
      "outputs": [],
      "stateMutability": "nonpayable",
      "type": "function"
    },
    {
      "inputs": [
        {
          "internalType": "address",
          "name": "_devaddr",
          "type": "address"
        }
      ],
      "name": "setDev",
      "outputs": [],
      "stateMutability": "nonpayable",
      "type": "function"
    },
    {
      "inputs": [
        {
          "internalType": "uint256",
          "name": "_dopplePerBlock",
          "type": "uint256"
        }
      ],
      "name": "setDopplePerBlock",
      "outputs": [],
      "stateMutability": "nonpayable",
      "type": "function"
    },
    {
      "inputs": [
        {
          "internalType": "uint256",
          "name": "_pid",
          "type": "uint256"
        },
        {
          "internalType": "uint256",
          "name": "_allocPoint",
          "type": "uint256"
        },
        {
          "internalType": "bool",
          "name": "_withUpdate",
          "type": "bool"
        }
      ],
      "name": "setPool",
      "outputs": [],
      "stateMutability": "nonpayable",
      "type": "function"
    },
    {
      "inputs": [],
      "name": "startBlock",
      "outputs": [
        {
          "internalType": "uint256",
          "name": "",
          "type": "uint256"
        }
      ],
      "stateMutability": "view",
      "type": "function"
    },
    {
      "inputs": [],
      "name": "totalAllocPoint",
      "outputs": [
        {
          "internalType": "uint256",
          "name": "",
          "type": "uint256"
        }
      ],
      "stateMutability": "view",
      "type": "function"
    },
    {
      "inputs": [
        {
          "internalType": "address",
          "name": "newOwner",
          "type": "address"
        }
      ],
      "name": "transferOwnership",
      "outputs": [],
      "stateMutability": "nonpayable",
      "type": "function"
    },
    {
      "inputs": [
        {
          "internalType": "uint256",
          "name": "_pid",
          "type": "uint256"
        }
      ],
      "name": "updatePool",
      "outputs": [],
      "stateMutability": "nonpayable",
      "type": "function"
    },
    {
      "inputs": [
        {
          "internalType": "uint256",
          "name": "",
          "type": "uint256"
        },
        {
          "internalType": "address",
          "name": "",
          "type": "address"
        }
      ],
      "name": "userInfo",
      "outputs": [
        {
          "internalType": "uint256",
          "name": "amount",
          "type": "uint256"
        },
        {
          "internalType": "uint256",
          "name": "rewardDebt",
          "type": "uint256"
        },
        {
          "internalType": "uint256",
          "name": "bonusDebt",
          "type": "uint256"
        },
        {
          "internalType": "address",
          "name": "fundedBy",
          "type": "address"
        }
      ],
      "stateMutability": "view",
      "type": "function"
    },
    {
      "inputs": [
        {
          "internalType": "address",
          "name": "_for",
          "type": "address"
        },
        {
          "internalType": "uint256",
          "name": "_pid",
          "type": "uint256"
        },
        {
          "internalType": "uint256",
          "name": "_amount",
          "type": "uint256"
        }
      ],
      "name": "withdraw",
      "outputs": [],
      "stateMutability": "nonpayable",
      "type": "function"
    },
    {
      "inputs": [
        {
          "internalType": "address",
          "name": "_for",
          "type": "address"
        },
        {
          "internalType": "uint256",
          "name": "_pid",
          "type": "uint256"
        }
      ],
      "name": "withdrawAll",
      "outputs": [],
      "stateMutability": "nonpayable",
      "type": "function"
    }
  ],
  "bytecode": "0x608060405234801561001057600080fd5b506040516124d93803806124d9833981810160405260c081101561003357600080fd5b508051602082015160408301516060840151608085015160a0909501519394929391929091600061006b6001600160e01b0361010616565b600080546001600160a01b0319166001600160a01b0383169081178255604051929350917f8be0079c531659141344cd1fd0a4f28419497f9722a3daafe3b4186f6b6457e0908290a35060006004819055600955600180546001600160a01b039788166001600160a01b0319918216179091556002805496909716951694909417909455600391909155600692909255600555600a5561010a565b3390565b6123c0806101196000396000f3fe608060405234801561001057600080fd5b50600436106101da5760003560e01c8063a8b973a111610104578063cc6dbc27116100a2578063e2cb494b11610071578063e2cb494b14610526578063e4c5ff461461052e578063f2fde38b1461055a578063fa5be8f814610580576101da565b8063cc6dbc27146104af578063d477f05f146104db578063d49e77cd14610501578063ddc6326214610509576101da565b8063b5c5f672116100de578063b5c5f6721461042c578063bfc8094a1461045e578063c1f3553c1461047b578063cbdec1fc146104a7576101da565b8063a8b973a1146103e2578063b03df69d146103ea578063b4a0a9c814610424576101da565b806351eb05a61161017c5780637abceffd1161014b5780637abceffd1461030c5780638da5cb5b146103405780638dbb1e3a1461036457806393f1a40b14610387576101da565b806351eb05a6146102c25780635312ea8e146102df578063630b5ba1146102fc578063715018a614610304576101da565b806317caf6f1116101b857806317caf6f11461027f5780631aed65531461028757806346ca6bea1461028f57806348cd4cb1146102ba576101da565b8063081e3eda146101df5780630efe6a8b146101f95780631526fe271461022d575b600080fd5b6101e76105a9565b60408051918252519081900360200190f35b61022b6004803603606081101561020f57600080fd5b506001600160a01b0381351690602081013590604001356105af565b005b61024a6004803603602081101561024357600080fd5b50356107aa565b604080516001600160a01b03909616865260208601949094528484019290925260608401526080830152519081900360a00190f35b6101e76107f2565b6101e76107f8565b61022b600480360360608110156102a557600080fd5b508035906020810135906040013515156107fe565b6101e76108df565b61022b600480360360208110156102d857600080fd5b50356108e5565b61022b600480360360208110156102f557600080fd5b5035610d03565b61022b610da4565b61022b610dc7565b61022b6004803603606081101561032257600080fd5b508035906001600160a01b0360208201351690604001351515610e73565b6103486110d7565b604080516001600160a01b039092168252519081900360200190f35b6101e76004803603604081101561037a57600080fd5b50803590602001356110e6565b6103b36004803603604081101561039d57600080fd5b50803590602001356001600160a01b0316611164565b604080519485526020850193909352838301919091526001600160a01b03166060830152519081900360800190f35b6101e761119f565b6104106004803603602081101561040057600080fd5b50356001600160a01b03166111a5565b604080519115158252519081900360200190f35b61034861120b565b61022b6004803603606081101561044257600080fd5b506001600160a01b03813516906020810135906040013561121a565b61022b6004803603602081101561047457600080fd5b503561122a565b6101e76004803603604081101561049157600080fd5b50803590602001356001600160a01b0316611291565b6101e7611407565b61022b600480360360408110156104c557600080fd5b506001600160a01b03813516906020013561140d565b61022b600480360360208110156104f157600080fd5b50356001600160a01b031661143d565b6103486114aa565b61022b6004803603602081101561051f57600080fd5b50356114b9565b6101e7611554565b61022b6004803603604081101561054457600080fd5b506001600160a01b03813516906020013561155a565b61022b6004803603602081101561057057600080fd5b50356001600160a01b031661162d565b61022b6004803603606081101561059657600080fd5b508035906020810135906040013561172f565b60075490565b6000600783815481106105be57fe5b600091825260208083208684526008825260408085206001600160a01b03808b168752935290932060038101546005909302909301935016156106465760038101546001600160a01b03163314610646576040805162461bcd60e51b81526020600482015260076024820152663130b21039b7b360c91b604482015290519081900360640190fd5b81546001600160a01b03166106a2576040805162461bcd60e51b815260206004820152601b60248201527f6465706f7369743a206e6f7420616363657074206465706f7369740000000000604482015290519081900360640190fd5b6106ab846108e5565b8054156106bc576106bc8585611848565b60038101546001600160a01b03166106e3576003810180546001600160a01b031916331790555b8154610700906001600160a01b031633308663ffffffff611aa016565b8054610712908463ffffffff611b0016565b80825560038301546107419164e8d4a5100091610735919063ffffffff611b5a16565b9063ffffffff611bb316565b6001820155600482015481546107679164e8d4a51000916107359163ffffffff611b5a16565b6002820155604080518481529051859133917f90890809c654f11d6e72a28fa60149770a0d11ec6c92319d6ceb2bb0a4ea1a159181900360200190a35050505050565b600781815481106107b757fe5b6000918252602090912060059091020180546001820154600283015460038401546004909401546001600160a01b0390931694509092909185565b60095481565b60055481565b610806611c1a565b6001600160a01b03166108176110d7565b6001600160a01b031614610860576040805162461bcd60e51b81526020600482018190526024820152600080516020612341833981519152604482015290519081900360640190fd5b801561086e5761086e610da4565b6108b1826108a56007868154811061088257fe5b906000526020600020906005020160010154600954611c1e90919063ffffffff16565b9063ffffffff611b0016565b60098190555081600784815481106108c557fe5b906000526020600020906005020160010181905550505050565b600a5481565b6000600782815481106108f457fe5b90600052602060002090600502019050806002015443116109155750610d00565b8054604080516370a0823160e01b815230600482015290516000926001600160a01b0316916370a08231916024808301926020929190829003018186803b15801561095f57600080fd5b505afa158015610973573d6000803e3d6000fd5b505050506040513d602081101561098957600080fd5b505190508061099f575043600290910155610d00565b60006109af8360020154436110e6565b905060006109e260095461073586600101546109d660035487611b5a90919063ffffffff16565b9063ffffffff611b5a16565b6001546002549192506001600160a01b03908116916340c10f199116610a0f84600a63ffffffff611bb316565b6040518363ffffffff1660e01b815260040180836001600160a01b03166001600160a01b0316815260200182815260200192505050600060405180830381600087803b158015610a5e57600080fd5b505af1158015610a72573d6000803e3d6000fd5b5050600154604080516340c10f1960e01b81523060048201526024810186905290516001600160a01b0390921693506340c10f19925060448082019260009290919082900301818387803b158015610ac957600080fd5b505af1158015610add573d6000803e3d6000fd5b50505050610b11610b008461073564e8d4a5100085611b5a90919063ffffffff16565b60038601549063ffffffff611b0016565b60038501556005544311610bcb576001546002546006546001600160a01b039283169263282d3fdf921690610b599061271090610735906109d688600a63ffffffff611bb316565b6040518363ffffffff1660e01b815260040180836001600160a01b03166001600160a01b0316815260200182815260200192505050600060405180830381600087803b158015610ba857600080fd5b505af1158015610bbc573d6000803e3d6000fd5b50505060038501546004860155505b60055443118015610be157506005548460020154105b15610cf2576000610c1b60095461073587600101546109d66003546109d66004546109d68d60020154600554611c1e90919063ffffffff16565b6001546002546006549293506001600160a01b039182169263282d3fdf9290911690610c549061271090610735906109d688600a611bb3565b6040518363ffffffff1660e01b815260040180836001600160a01b03166001600160a01b0316815260200182815260200192505050600060405180830381600087803b158015610ca357600080fd5b505af1158015610cb7573d6000803e3d6000fd5b50505050610ceb610cda8561073564e8d4a5100085611b5a90919063ffffffff16565b60048701549063ffffffff611b0016565b6004860155505b438460020181905550505050505b50565b600060078281548110610d1257fe5b60009182526020808320858452600882526040808520338087529352909320805460059093029093018054909450610d5d926001600160a01b0391909116919063ffffffff611c7b16565b80546040805191825251849133917fbb757047c2b5f3974fe26b7c10f732e7bce710b0952a71082702781e62ae05959181900360200190a360008082556001909101555050565b60075460005b81811015610dc357610dbb816108e5565b600101610daa565b5050565b610dcf611c1a565b6001600160a01b0316610de06110d7565b6001600160a01b031614610e29576040805162461bcd60e51b81526020600482018190526024820152600080516020612341833981519152604482015290519081900360640190fd5b600080546040516001600160a01b03909116907f8be0079c531659141344cd1fd0a4f28419497f9722a3daafe3b4186f6b6457e0908390a3600080546001600160a01b0319169055565b610e7b611c1a565b6001600160a01b0316610e8c6110d7565b6001600160a01b031614610ed5576040805162461bcd60e51b81526020600482018190526024820152600080516020612341833981519152604482015290519081900360640190fd5b8015610ee357610ee3610da4565b6001600160a01b038216610f3e576040805162461bcd60e51b815260206004820152601860248201527f6164643a206e6f74207374616b65546f6b656e20616464720000000000000000604482015290519081900360640190fd5b610f47826111a5565b15610f8f576040805162461bcd60e51b815260206004820152601360248201527206164643a207374616b65546f6b656e2064757606c1b604482015290519081900360640190fd5b6000600a544311610fa257600a54610fa4565b435b600954909150610fba908563ffffffff611b0016565b6009556040805160a0810182526001600160a01b039485168152602081019586529081019182526000606082018181526080830182815260078054600181018255935292517fa66cc928b5edb82af9bd49922954155ab7b0942694bea4ce44661d9a8736c688600590930292830180546001600160a01b031916919097161790955594517fa66cc928b5edb82af9bd49922954155ab7b0942694bea4ce44661d9a8736c68986015590517fa66cc928b5edb82af9bd49922954155ab7b0942694bea4ce44661d9a8736c68a85015591517fa66cc928b5edb82af9bd49922954155ab7b0942694bea4ce44661d9a8736c68b84015550517fa66cc928b5edb82af9bd49922954155ab7b0942694bea4ce44661d9a8736c68c90910155565b6000546001600160a01b031690565b6000600554821161110f57600454611108906109d6848663ffffffff611c1e16565b905061115e565b600554831061112857611108828463ffffffff611c1e16565b61115b61114060055484611c1e90919063ffffffff16565b6108a56004546109d687600554611c1e90919063ffffffff16565b90505b92915050565b60086020908152600092835260408084209091529082529020805460018201546002830154600390930154919290916001600160a01b031684565b60045481565b600754600090815b818110156111ff57836001600160a01b0316600782815481106111cc57fe5b60009182526020909120600590910201546001600160a01b031614156111f757600192505050611206565b6001016111ad565b5060009150505b919050565b6001546001600160a01b031681565b611225838383611ccd565b505050565b611232611c1a565b6001600160a01b03166112436110d7565b6001600160a01b03161461128c576040805162461bcd60e51b81526020600482018190526024820152600080516020612341833981519152604482015290519081900360640190fd5b600355565b600080600784815481106112a157fe5b600091825260208083208784526008825260408085206001600160a01b0389811687529084528186206005959095029092016003810154815483516370a0823160e01b815230600482015293519298509596909590949316926370a082319260248082019391829003018186803b15801561131b57600080fd5b505afa15801561132f573d6000803e3d6000fd5b505050506040513d602081101561134557600080fd5b505160028501549091504311801561135c57508015155b156113c85760006113718560020154436110e6565b9050600061139860095461073588600101546109d660035487611b5a90919063ffffffff16565b90506113c36113b6846107358464e8d4a5100063ffffffff611b5a16565b859063ffffffff611b0016565b935050505b6113fc83600101546113f064e8d4a51000610735868860000154611b5a90919063ffffffff16565b9063ffffffff611c1e16565b979650505050505050565b60065481565b60008181526008602090815260408083206001600160a01b0386168452909152902054610dc39083908390611ccd565b6002546001600160a01b03163314611488576040805162461bcd60e51b81526020600482015260096024820152686465763a207775743f60b81b604482015290519081900360640190fd5b600280546001600160a01b0319166001600160a01b0392909216919091179055565b6002546001600160a01b031681565b6000600782815481106114c857fe5b600091825260208083208584526008825260408085203386529092529220600590910290910191506114f9836108e5565b6115033384611848565b600382015481546115249164e8d4a51000916107359163ffffffff611b5a16565b60018201556004820154815461154a9164e8d4a51000916107359163ffffffff611b5a16565b6002909101555050565b60035481565b611562611c1a565b6001600160a01b03166115736110d7565b6001600160a01b0316146115bc576040805162461bcd60e51b81526020600482018190526024820152600080516020612341833981519152604482015290519081900360640190fd5b60015460408051637262ffa360e11b81526001600160a01b038581166004830152602482018590529151919092169163e4c5ff4691604480830192600092919082900301818387803b15801561161157600080fd5b505af1158015611625573d6000803e3d6000fd5b505050505050565b611635611c1a565b6001600160a01b03166116466110d7565b6001600160a01b03161461168f576040805162461bcd60e51b81526020600482018190526024820152600080516020612341833981519152604482015290519081900360640190fd5b6001600160a01b0381166116d45760405162461bcd60e51b81526004018080602001828103825260268152602001806122d46026913960400191505060405180910390fd5b600080546040516001600160a01b03808516939216917f8be0079c531659141344cd1fd0a4f28419497f9722a3daafe3b4186f6b6457e091a3600080546001600160a01b0319166001600160a01b0392909216919091179055565b611737611c1a565b6001600160a01b03166117486110d7565b6001600160a01b031614611791576040805162461bcd60e51b81526020600482018190526024820152600080516020612341833981519152604482015290519081900360640190fd5b4382116117e5576040805162461bcd60e51b815260206004820152601b60248201527f736574426f6e75733a2062616420626f6e7573456e64426c6f636b0000000000604482015290519081900360640190fd5b6001831161183a576040805162461bcd60e51b815260206004820152601d60248201527f736574426f6e75733a2062616420626f6e75734d756c7469706c696572000000604482015290519081900360640190fd5b600492909255600555600655565b60006007828154811061185757fe5b600091825260208083208584526008825260408085206001600160a01b038916865290925292208054600590920290920192506118d0576040805162461bcd60e51b81526020600482015260126024820152711b9bdd1a1a5b99c81d1bc81a185c9d995cdd60721b604482015290519081900360640190fd5b60006118fe82600101546113f064e8d4a5100061073587600301548760000154611b5a90919063ffffffff16565b600154604080516370a0823160e01b815230600482015290519293506001600160a01b03909116916370a0823191602480820192602092909190829003018186803b15801561194c57600080fd5b505afa158015611960573d6000803e3d6000fd5b505050506040513d602081101561197657600080fd5b50518111156119c4576040805162461bcd60e51b8152602060048201526015602482015274777466206e6f7420656e6f75676820646f70706c6560581b604482015290519081900360640190fd5b60006119f283600201546113f064e8d4a5100061073588600401548860000154611b5a90919063ffffffff16565b90506119fe8683611e7e565b6001546006546001600160a01b039091169063282d3fdf908890611a31906127109061073590879063ffffffff611b5a16565b6040518363ffffffff1660e01b815260040180836001600160a01b03166001600160a01b0316815260200182815260200192505050600060405180830381600087803b158015611a8057600080fd5b505af1158015611a94573d6000803e3d6000fd5b50505050505050505050565b604080516001600160a01b0380861660248301528416604482015260648082018490528251808303909101815260849091019091526020810180516001600160e01b03166323b872dd60e01b179052611afa90859061200e565b50505050565b60008282018381101561115b576040805162461bcd60e51b815260206004820152601b60248201527f536166654d6174683a206164646974696f6e206f766572666c6f770000000000604482015290519081900360640190fd5b600082611b695750600061115e565b82820282848281611b7657fe5b041461115b5760405162461bcd60e51b81526004018080602001828103825260218152602001806123206021913960400191505060405180910390fd5b6000808211611c09576040805162461bcd60e51b815260206004820152601a60248201527f536166654d6174683a206469766973696f6e206279207a65726f000000000000604482015290519081900360640190fd5b818381611c1257fe5b049392505050565b3390565b600082821115611c75576040805162461bcd60e51b815260206004820152601e60248201527f536166654d6174683a207375627472616374696f6e206f766572666c6f770000604482015290519081900360640190fd5b50900390565b604080516001600160a01b038416602482015260448082018490528251808303909101815260649091019091526020810180516001600160e01b031663a9059cbb60e01b17905261122590849061200e565b600060078381548110611cdc57fe5b600091825260208083208684526008825260408085206001600160a01b03808b1687529352909320600381015460059093029093019350163314611d55576040805162461bcd60e51b815260206004820152600b60248201526a37b7363c90333ab73232b960a91b604482015290519081900360640190fd5b8054831115611da0576040805162461bcd60e51b81526020600482015260126024820152711dda5d1a191c985dce881b9bdd0819dbdbd960721b604482015290519081900360640190fd5b611da9846108e5565b611db38585611848565b8054611dc5908463ffffffff611c1e16565b8082556003830154611de89164e8d4a5100091610735919063ffffffff611b5a16565b600182015560048201548154611e0e9164e8d4a51000916107359163ffffffff611b5a16565b600282015581546001600160a01b031615611e3f578154611e3f906001600160a01b0316338563ffffffff611c7b16565b80546040805191825251859133917ff279e6a1f5e320cca91135676d9cb6e44ca8a08c0b88342bcdb1144f6511b5689181900360200190a35050505050565b600154604080516370a0823160e01b815230600482015290516000926001600160a01b0316916370a08231916024808301926020929190829003018186803b158015611ec957600080fd5b505afa158015611edd573d6000803e3d6000fd5b505050506040513d6020811015611ef357600080fd5b5051905080821115611f87576001546040805163a9059cbb60e01b81526001600160a01b038681166004830152602482018590529151919092169163a9059cbb9160448083019260209291908290030181600087803b158015611f5557600080fd5b505af1158015611f69573d6000803e3d6000fd5b505050506040513d6020811015611f7f57600080fd5b506112259050565b6001546040805163a9059cbb60e01b81526001600160a01b038681166004830152602482018690529151919092169163a9059cbb9160448083019260209291908290030181600087803b158015611fdd57600080fd5b505af1158015611ff1573d6000803e3d6000fd5b505050506040513d602081101561200757600080fd5b5050505050565b6060612063826040518060400160405280602081526020017f5361666545524332303a206c6f772d6c6576656c2063616c6c206661696c6564815250856001600160a01b03166120bf9092919063ffffffff16565b8051909150156112255780806020019051602081101561208257600080fd5b50516112255760405162461bcd60e51b815260040180806020018281038252602a815260200180612361602a913960400191505060405180910390fd5b60606120ce84846000856120d8565b90505b9392505050565b6060824710156121195760405162461bcd60e51b81526004018080602001828103825260268152602001806122fa6026913960400191505060405180910390fd5b61212285612229565b612173576040805162461bcd60e51b815260206004820152601d60248201527f416464726573733a2063616c6c20746f206e6f6e2d636f6e7472616374000000604482015290519081900360640190fd5b60006060866001600160a01b031685876040518082805190602001908083835b602083106121b25780518252601f199092019160209182019101612193565b6001836020036101000a03801982511681845116808217855250505050505090500191505060006040518083038185875af1925050503d8060008114612214576040519150601f19603f3d011682016040523d82523d6000602084013e612219565b606091505b50915091506113fc82828661222f565b3b151590565b6060831561223e5750816120d1565b82511561224e5782518084602001fd5b8160405162461bcd60e51b81526004018080602001828103825283818151815260200191508051906020019080838360005b83811015612298578181015183820152602001612280565b50505050905090810190601f1680156122c55780820380516001836020036101000a031916815260200191505b509250505060405180910390fdfe4f776e61626c653a206e6577206f776e657220697320746865207a65726f2061646472657373416464726573733a20696e73756666696369656e742062616c616e636520666f722063616c6c536166654d6174683a206d756c7469706c69636174696f6e206f766572666c6f774f776e61626c653a2063616c6c6572206973206e6f7420746865206f776e65725361666545524332303a204552433230206f7065726174696f6e20646964206e6f742073756363656564a264697066735822122075e818abbc72ce83fe7572c01bee3ee7cf12b36e0776ab172112fae8ceb2f0a064736f6c63430006060033",
  "linkReferences": {},
  "deployedLinkReferences": {}
}